{
  "contractName": "PollingSystem",
  "abi": [
    {
      "inputs": [],
      "stateMutability": "nonpayable",
      "type": "constructor"
    },
    {
      "anonymous": false,
      "inputs": [
        {
          "indexed": false,
          "internalType": "uint256",
          "name": "pollId",
          "type": "uint256"
        },
        {
          "indexed": false,
          "internalType": "string",
          "name": "question",
          "type": "string"
        }
      ],
      "name": "PollCreated",
      "type": "event"
    },
    {
      "anonymous": false,
      "inputs": [
        {
          "indexed": true,
          "internalType": "address",
          "name": "voter",
          "type": "address"
        },
        {
          "indexed": false,
          "internalType": "uint256",
          "name": "pollId",
          "type": "uint256"
        },
        {
          "indexed": false,
          "internalType": "uint256",
          "name": "optionId",
          "type": "uint256"
        }
      ],
      "name": "Voted",
      "type": "event"
    },
    {
      "inputs": [],
      "name": "owner",
      "outputs": [
        {
          "internalType": "address",
          "name": "",
          "type": "address"
        }
      ],
      "stateMutability": "view",
      "type": "function",
      "constant": true
    },
    {
      "inputs": [
        {
          "internalType": "uint256",
          "name": "",
          "type": "uint256"
        }
      ],
      "name": "polls",
      "outputs": [
        {
          "internalType": "string",
          "name": "question",
          "type": "string"
        },
        {
          "internalType": "uint256",
          "name": "totalVotes",
          "type": "uint256"
        }
      ],
      "stateMutability": "view",
      "type": "function",
      "constant": true
    },
    {
      "inputs": [],
      "name": "pollsCount",
      "outputs": [
        {
          "internalType": "uint256",
          "name": "",
          "type": "uint256"
        }
      ],
      "stateMutability": "view",
      "type": "function",
      "constant": true
    },
    {
      "inputs": [
        {
          "internalType": "string",
          "name": "_question",
          "type": "string"
        },
        {
          "internalType": "string[]",
          "name": "_options",
          "type": "string[]"
        }
      ],
      "name": "createPoll",
      "outputs": [],
      "stateMutability": "nonpayable",
      "type": "function"
    },
    {
      "inputs": [
        {
          "internalType": "uint256",
          "name": "_pollId",
          "type": "uint256"
        },
        {
          "internalType": "uint256",
          "name": "_optionId",
          "type": "uint256"
        }
      ],
      "name": "vote",
      "outputs": [],
      "stateMutability": "nonpayable",
      "type": "function"
    },
    {
      "inputs": [
        {
          "internalType": "uint256",
          "name": "_pollId",
          "type": "uint256"
        }
      ],
      "name": "getResults",
      "outputs": [
        {
          "internalType": "uint256[]",
          "name": "",
          "type": "uint256[]"
        }
      ],
      "stateMutability": "view",
      "type": "function",
      "constant": true
    },
    {
      "inputs": [
        {
          "internalType": "uint256",
          "name": "_pollId",
          "type": "uint256"
        }
      ],
      "name": "getPoll",
      "outputs": [
        {
          "internalType": "string",
          "name": "",
          "type": "string"
        },
        {
          "internalType": "string[]",
          "name": "",
          "type": "string[]"
        },
        {
          "internalType": "uint256[]",
          "name": "",
          "type": "uint256[]"
        }
      ],
      "stateMutability": "view",
      "type": "function",
      "constant": true
    },
    {
      "inputs": [],
      "name": "getAllPolls",
      "outputs": [
        {
          "internalType": "string[]",
          "name": "",
          "type": "string[]"
        }
      ],
      "stateMutability": "view",
      "type": "function",
      "constant": true
    },
    {
      "inputs": [
        {
          "internalType": "uint256",
          "name": "_pollId",
          "type": "uint256"
        },
        {
          "internalType": "address",
          "name": "_voter",
          "type": "address"
        }
      ],
      "name": "hasUserVoted",
      "outputs": [
        {
          "internalType": "bool",
          "name": "",
          "type": "bool"
        }
      ],
      "stateMutability": "view",
      "type": "function",
      "constant": true
    }
  ],
  "bytecode": "0x608060405234801561001057600080fd5b5033600160006101000a81548173ffffffffffffffffffffffffffffffffffffffff021916908373ffffffffffffffffffffffffffffffffffffffff16021790555061173a806100616000396000f3fe608060405234801561001057600080fd5b50600436106100935760003560e01c806381a60c0d1161006657806381a60c0d146101225780638da5cb5b14610152578063ac2f007414610170578063b384abef146101a1578063dc296ae1146101bd57610093565b8063179d760d146100985780631a8cbcaa146100b657806332b633fa146100e85780637e3d71c314610106575b600080fd5b6100a06101ed565b6040516100ad919061135f565b60405180910390f35b6100d060048036038101906100cb9190610f5b565b6101f3565b6040516100df939291906112a3565b60405180910390f35b6100f06104b5565b6040516100fd9190611244565b60405180910390f35b610120600480360381019061011b9190610eef565b610676565b005b61013c60048036038101906101379190610f5b565b61073c565b6040516101499190611266565b60405180910390f35b61015a61088e565b6040516101679190611229565b60405180910390f35b61018a60048036038101906101859190610f5b565b6108b4565b6040516101989291906112ef565b60405180910390f35b6101bb60048036038101906101b69190610fc0565b610970565b005b6101d760048036038101906101d29190610f84565b610bd0565b6040516101e49190611288565b60405180910390f35b60025481565b60608060606000808581548110610233577f4e487b7100000000000000000000000000000000000000000000000000000000600052603260045260246000fd5b906000526020600020906005020190506000816001018054905067ffffffffffffffff81111561028c577f4e487b7100000000000000000000000000000000000000000000000000000000600052604160045260246000fd5b6040519080825280602002602001820160405280156102ba5781602001602082028036833780820191505090505b50905060005b826001018054905081101561033d578260030160008281526020019081526020016000205482828151811061031e577f4e487b7100000000000000000000000000000000000000000000000000000000600052603260045260246000fd5b6020026020010181815250508080610335906115ef565b9150506102c0565b50816000018260010182828054610353906115bd565b80601f016020809104026020016040519081016040528092919081815260200182805461037f906115bd565b80156103cc5780601f106103a1576101008083540402835291602001916103cc565b820191906000526020600020905b8154815290600101906020018083116103af57829003601f168201915b5050505050925081805480602002602001604051908101604052809291908181526020016000905b828210156104a0578382906000526020600020018054610413906115bd565b80601f016020809104026020016040519081016040528092919081815260200182805461043f906115bd565b801561048c5780601f106104615761010080835404028352916020019161048c565b820191906000526020600020905b81548152906001019060200180831161046f57829003601f168201915b5050505050815260200190600101906103f4565b50505050915094509450945050509193909250565b60606000808054905067ffffffffffffffff8111156104fd577f4e487b7100000000000000000000000000000000000000000000000000000000600052604160045260246000fd5b60405190808252806020026020018201604052801561053057816020015b606081526020019060019003908161051b5790505b50905060005b60008054905081101561066e576000818154811061057d577f4e487b7100000000000000000000000000000000000000000000000000000000600052603260045260246000fd5b90600052602060002090600502016000018054610599906115bd565b80601f01602080910402602001604051908101604052809291908181526020018280546105c5906115bd565b80156106125780601f106105e757610100808354040283529160200191610612565b820191906000526020600020905b8154815290600101906020018083116105f557829003601f168201915b5050505050828281518110610650577f4e487b7100000000000000000000000000000000000000000000000000000000600052603260045260246000fd5b60200260200101819052508080610666906115ef565b915050610536565b508091505090565b6000806001816001815401808255809150500390600052602060002090600502019050828160000190805190602001906106b1929190610c6f565b5060008160040181905550818160010190805190602001906106d4929190610cf5565b507f65d5ac2bf1bca69566bef1affdfca5bb37b9577fc0b3af4c7c4638225e67b39c600160008054905061070891906114ff565b8460405161071792919061137a565b60405180910390a160026000815480929190610732906115ef565b9190505550505050565b60606000808381548110610779577f4e487b7100000000000000000000000000000000000000000000000000000000600052603260045260246000fd5b906000526020600020906005020190506000816001018054905067ffffffffffffffff8111156107d2577f4e487b7100000000000000000000000000000000000000000000000000000000600052604160045260246000fd5b6040519080825280602002602001820160405280156108005781602001602082028036833780820191505090505b50905060005b82600101805490508110156108835782600301600082815260200190815260200160002054828281518110610864577f4e487b7100000000000000000000000000000000000000000000000000000000600052603260045260246000fd5b602002602001018181525050808061087b906115ef565b915050610806565b508092505050919050565b600160009054906101000a900473ffffffffffffffffffffffffffffffffffffffff1681565b600081815481106108c457600080fd5b90600052602060002090600502016000915090508060000180546108e7906115bd565b80601f0160208091040260200160405190810160405280929190818152602001828054610913906115bd565b80156109605780601f1061093557610100808354040283529160200191610960565b820191906000526020600020905b81548152906001019060200180831161094357829003601f168201915b5050505050908060040154905082565b81600081815481106109ab577f4e487b7100000000000000000000000000000000000000000000000000000000600052603260045260246000fd5b906000526020600020906005020160020160003373ffffffffffffffffffffffffffffffffffffffff1673ffffffffffffffffffffffffffffffffffffffff16815260200190815260200160002060009054906101000a900460ff1615610a47576040517f08c379a0000000000000000000000000000000000000000000000000000000008152600401610a3e9061131f565b60405180910390fd5b6000808481548110610a82577f4e487b7100000000000000000000000000000000000000000000000000000000600052603260045260246000fd5b9060005260206000209060050201905080600101805490508310610adb576040517f08c379a0000000000000000000000000000000000000000000000000000000008152600401610ad29061133f565b60405180910390fd5b60018160020160003373ffffffffffffffffffffffffffffffffffffffff1673ffffffffffffffffffffffffffffffffffffffff16815260200190815260200160002060006101000a81548160ff0219169083151502179055508060030160008481526020019081526020016000206000815480929190610b5b906115ef565b9190505550806004016000815480929190610b75906115ef565b91905055503373ffffffffffffffffffffffffffffffffffffffff167fea66f58e474bc09f580000e81f31b334d171db387d0c6098ba47bd897741679b8585604051610bc29291906113aa565b60405180910390a250505050565b6000808381548110610c0b577f4e487b7100000000000000000000000000000000000000000000000000000000600052603260045260246000fd5b906000526020600020906005020160020160008373ffffffffffffffffffffffffffffffffffffffff1673ffffffffffffffffffffffffffffffffffffffff16815260200190815260200160002060009054906101000a900460ff16905092915050565b828054610c7b906115bd565b90600052602060002090601f016020900481019282610c9d5760008555610ce4565b82601f10610cb657805160ff1916838001178555610ce4565b82800160010185558215610ce4579182015b82811115610ce3578251825591602001919060010190610cc8565b5b509050610cf19190610d55565b5090565b828054828255906000526020600020908101928215610d44579160200282015b82811115610d43578251829080519060200190610d33929190610c6f565b5091602001919060010190610d15565b5b509050610d519190610d72565b5090565b5b80821115610d6e576000816000905550600101610d56565b5090565b5b80821115610d925760008181610d899190610d96565b50600101610d73565b5090565b508054610da2906115bd565b6000825580601f10610db45750610dd3565b601f016020900490600052602060002090810190610dd29190610d55565b5b50565b6000610de9610de484611404565b6113d3565b9050808382526020820190508260005b85811015610e295781358501610e0f8882610eb0565b845260208401935060208301925050600181019050610df9565b5050509392505050565b6000610e46610e4184611430565b6113d3565b905082815260208101848484011115610e5e57600080fd5b610e6984828561157b565b509392505050565b600081359050610e80816116d6565b92915050565b600082601f830112610e9757600080fd5b8135610ea7848260208601610dd6565b91505092915050565b600082601f830112610ec157600080fd5b8135610ed1848260208601610e33565b91505092915050565b600081359050610ee9816116ed565b92915050565b60008060408385031215610f0257600080fd5b600083013567ffffffffffffffff811115610f1c57600080fd5b610f2885828601610eb0565b925050602083013567ffffffffffffffff811115610f4557600080fd5b610f5185828601610e86565b9150509250929050565b600060208284031215610f6d57600080fd5b6000610f7b84828501610eda565b91505092915050565b60008060408385031215610f9757600080fd5b6000610fa585828601610eda565b9250506020610fb685828601610e71565b9150509250929050565b60008060408385031215610fd357600080fd5b6000610fe185828601610eda565b9250506020610ff285828601610eda565b9150509250929050565b60006110088383611119565b905092915050565b600061101c838361120b565b60208301905092915050565b61103181611533565b82525050565b600061104282611480565b61104c81856114bb565b93508360208202850161105e85611460565b8060005b8581101561109a578484038952815161107b8582610ffc565b9450611086836114a1565b925060208a01995050600181019050611062565b50829750879550505050505092915050565b60006110b78261148b565b6110c181856114cc565b93506110cc83611470565b8060005b838110156110fd5781516110e48882611010565b97506110ef836114ae565b9250506001810190506110d0565b5085935050505092915050565b61111381611545565b82525050565b600061112482611496565b61112e81856114dd565b935061113e81856020860161158a565b611147816116c5565b840191505092915050565b600061115d82611496565b61116781856114ee565b935061117781856020860161158a565b611180816116c5565b840191505092915050565b60006111986017836114ee565b91507f596f75206861766520616c726561647920766f7465642e0000000000000000006000830152602082019050919050565b60006111d8600e836114ee565b91507f496e76616c6964206f7074696f6e0000000000000000000000000000000000006000830152602082019050919050565b61121481611571565b82525050565b61122381611571565b82525050565b600060208201905061123e6000830184611028565b92915050565b6000602082019050818103600083015261125e8184611037565b905092915050565b6000602082019050818103600083015261128081846110ac565b905092915050565b600060208201905061129d600083018461110a565b92915050565b600060608201905081810360008301526112bd8186611152565b905081810360208301526112d18185611037565b905081810360408301526112e581846110ac565b9050949350505050565b600060408201905081810360008301526113098185611152565b9050611318602083018461121a565b9392505050565b600060208201905081810360008301526113388161118b565b9050919050565b60006020820190508181036000830152611358816111cb565b9050919050565b6000602082019050611374600083018461121a565b92915050565b600060408201905061138f600083018561121a565b81810360208301526113a18184611152565b90509392505050565b60006040820190506113bf600083018561121a565b6113cc602083018461121a565b9392505050565b6000604051905081810181811067ffffffffffffffff821117156113fa576113f9611696565b5b8060405250919050565b600067ffffffffffffffff82111561141f5761141e611696565b5b602082029050602081019050919050565b600067ffffffffffffffff82111561144b5761144a611696565b5b601f19601f8301169050602081019050919050565b6000819050602082019050919050565b6000819050602082019050919050565b600081519050919050565b600081519050919050565b600081519050919050565b6000602082019050919050565b6000602082019050919050565b600082825260208201905092915050565b600082825260208201905092915050565b600082825260208201905092915050565b600082825260208201905092915050565b600061150a82611571565b915061151583611571565b92508282101561152857611527611638565b5b828203905092915050565b600061153e82611551565b9050919050565b60008115159050919050565b600073ffffffffffffffffffffffffffffffffffffffff82169050919050565b6000819050919050565b82818337600083830152505050565b60005b838110156115a857808201518184015260208101905061158d565b838111156115b7576000848401525b50505050565b600060028204905060018216806115d557607f821691505b602082108114156115e9576115e8611667565b5b50919050565b60006115fa82611571565b91507fffffffffffffffffffffffffffffffffffffffffffffffffffffffffffffffff82141561162d5761162c611638565b5b600182019050919050565b7f4e487b7100000000000000000000000000000000000000000000000000000000600052601160045260246000fd5b7f4e487b7100000000000000000000000000000000000000000000000000000000600052602260045260246000fd5b7f4e487b7100000000000000000000000000000000000000000000000000000000600052604160045260246000fd5b6000601f19601f8301169050919050565b6116df81611533565b81146116ea57600080fd5b50565b6116f681611571565b811461170157600080fd5b5056fea2646970667358221220f806af69abbd852afd3e4193583d3bd1cb6bba1406720b9943973c69e119886d64736f6c63430008000033",
  "immutableReferences": {},
  "source": "// SPDX-License-Identifier: MIT\r\npragma solidity ^0.8.0;\r\n\r\ncontract PollingSystem {\r\n    \r\n    // Poll structure to store poll details\r\n    struct Poll {\r\n        \r\n        string question;\r\n        string[] options;\r\n        mapping(address => bool) hasVoted;  // Tracks who has voted\r\n        mapping(uint256 => uint256) voteCount;  // Tracks votes per option\r\n        uint256 totalVotes;  // Total number of votes for the poll\r\n    }\r\n\r\n    // Array to store all polls\r\n    Poll[] public polls;\r\n\r\n    // Contract owner\r\n    address public owner;\r\n\r\n    // Events for poll creation and voting\r\n    event PollCreated(uint256 pollId, string question);\r\n    event Voted(address indexed voter, uint256 pollId, uint256 optionId);\r\n\r\n    // Constructor to set contract owner\r\n    constructor() {\r\n        owner = msg.sender;\r\n    }\r\n\r\n\r\n\r\n    // Modifier to ensure that the voter has not already voted\r\n    modifier hasNotVoted(uint256 pollId) {\r\n        require(!polls[pollId].hasVoted[msg.sender], \"You have already voted.\");\r\n        _;\r\n    }\r\n\r\n   // Add this variable to your contract\r\nuint256 public pollsCount;  // Total number of polls created\r\n\r\n// Update the createPoll function\r\nfunction createPoll(string memory _question, string[] memory _options) public {\r\n    Poll storage newPoll = polls.push();  // Add new poll to the polls array\r\n    newPoll.question = _question;  // Set poll question\r\n    newPoll.totalVotes = 0;  // Initialize total votes\r\n    newPoll.options = _options;  // Set options directly\r\n\r\n    // Emit PollCreated event with pollId and question\r\n    emit PollCreated(polls.length - 1, _question);\r\n\r\n    pollsCount++;  // Increment the total polls count\r\n}\r\n\r\n    // Function to vote on a poll (checks if the voter has not voted already)\r\n    function vote(uint256 _pollId, uint256 _optionId) public hasNotVoted(_pollId) {\r\n        Poll storage poll = polls[_pollId];  // Retrieve the poll by pollId\r\n        require(_optionId < poll.options.length, \"Invalid option\");\r\n\r\n        poll.hasVoted[msg.sender] = true;  // Mark the sender as voted\r\n        poll.voteCount[_optionId]++;  // Increment the vote count for the selected option\r\n        poll.totalVotes++;  // Increment total votes for the poll\r\n\r\n        // Emit Voted event with voter address, pollId, and optionId\r\n        emit Voted(msg.sender, _pollId, _optionId);\r\n    }\r\n\r\n    // Function to get results of a poll\r\n    function getResults(uint256 _pollId) public view returns (uint256[] memory) {\r\n        Poll storage poll = polls[_pollId];  // Retrieve the poll by pollId\r\n        uint256[] memory results = new uint256[](poll.options.length);  // Array to store results\r\n        \r\n        // Loop through each option and store the vote count\r\n        for (uint256 i = 0; i < poll.options.length; i++) {\r\n            results[i] = poll.voteCount[i];\r\n        }\r\n\r\n        return results;\r\n    }\r\n\r\n    // Function to get the details of a specific poll\r\n    function getPoll(uint256 _pollId) public view returns (string memory, string[] memory, uint256[] memory) {\r\n        Poll storage poll = polls[_pollId];  // Retrieve the poll by pollId\r\n        uint256[] memory voteCounts = new uint256[](poll.options.length);  // Array to store vote counts\r\n        \r\n        // Store vote counts for each option\r\n        for (uint256 i = 0; i < poll.options.length; i++) {\r\n            voteCounts[i] = poll.voteCount[i];\r\n        }\r\n\r\n        return (poll.question, poll.options, voteCounts);  // Return question, options, and vote counts\r\n    }\r\n\r\n    // Function to get the list of all poll questions\r\n    function getAllPolls() public view returns (string[] memory) {\r\n        string[] memory questions = new string[](polls.length);  // Array to store poll questions\r\n        \r\n        // Loop through all polls and store their questions\r\n        for (uint256 i = 0; i < polls.length; i++) {\r\n            questions[i] = polls[i].question;\r\n        }\r\n\r\n        return questions;\r\n    }\r\n\r\n    // Function to check if a specific user has voted in a poll\r\n    function hasUserVoted(uint256 _pollId, address _voter) public view returns (bool) {\r\n        return polls[_pollId].hasVoted[_voter];\r\n    }\r\n}\r\n",
  "sourcePath": "C:\\Users\\Yousaf Khalid\\Desktop\\blockchain project\\contracts\\Polls.sol",
  "compiler": {
    "name": "solc",
    "version": "0.8.0+commit.c7dfd78e.Emscripten.clang"
  },
  "schemaVersion": "3.4.16",
  "updatedAt": "2024-10-14T09:11:24.663Z",
  "networkType": "ethereum",
  "devdoc": {
    "kind": "dev",
    "methods": {},
    "version": 1
  },
  "userdoc": {
    "kind": "user",
    "methods": {},
    "version": 1
  }
}